:100000000C9467000C948F000C948F000C948F005C
:100010000C948F000C948F000C948F000C948F0024
:100020000C948F000C948F000C948F000C948F0014
:100030000C948F000C948F000C948F000C948F0004
:100040000C94B2020C948F000C948F000C948F00CF
:100050000C948F000C948F000C948F000C948F00E4
:100060000C94FC020C948F00000000002400270078
:100070002A0000000000250028002B0000000000DE
:1000800023002600290004040404040404040202DA
:100090000202020203030303030302020301020438
:1000A00008102040800102040810200102040810FA
:1000B0002040804000000009000302000004050801
:1000C00000000000000000000000000015041124E2
:1000D0001FBECFEFD8E0DEBFCDBF11E0A0E0B1E0A2
:1000E000EAE9FDE002C005900D92A433B107D9F70B
:1000F00022E0A4E3B1E001C01D92AF35B207E1F701
:1001000010E0C7E6D0E004C02197FE010E94C506BA
:10011000C636D107C9F70E94D4040C94CB060C94C0
:10012000000096E0899F9001112429533E4FF90168
:10013000E95BFF4F71836083329691E09083E09199
:100140005C02F0915D0290915B02992339F0309747
:1001500061F081110AC080910B020994309729F057
:100160002C5B3F4FD9018C91F8CF0895CF92DF924D
:10017000EF92FF920F931F9396E0899F90011124B5
:1001800029533E4FF901E75BFF4F1082295B3F4F38
:10019000F901208131812130310551F178F022308F
:1001A000310509F451C02330310509F452C01F91C3
:1001B0000F91FF90EF90DF90CF9008956623B9F3F1
:1001C00061E070E00E9491002FB7F8948091B30134
:1001D0009091B401A091B501B091B6012FBF809369
:1001E000470290934802A0934902B0934A02DFCF9E
:1001F0009FB7F894C090B301D090B401E090B501DE
:10020000F090B6019FBF00914702109148022091E3
:10021000490230914A02C01AD10AE20AF30A009157
:10022000590210915A0230E020E00C151D052E05F0
:100230003F0550F462E070E01F910F91FF90EF9046
:10024000DF90CF900C9491006111B1CF63E070E02A
:10025000F3CF70E060E0F0CF843081F028F482309A
:10026000E9F08330F9F00895883071F0893091F029
:100270008530B9F4809180008F7D03C0809180002B
:100280008F778093800008958091B0008F7780935E
:10029000B00008958091B0008F7DF9CF84B58F773D
:1002A00084BD089584B58F7DFBCFCF93DF93282F36
:1002B00030E0F901EC54FF4F8491F901E356FF4F10
:1002C000D491F901EA57FF4FC491CC23A1F08111D9
:1002D0000E942C01EC2FF0E0EE0FFF1FE458FF4FBF
:1002E000A591B491EC91ED2381E090E009F480E0D8
:1002F000DF91CF91089580E090E0FACF1F93CF93E4
:10030000DF93282F30E0F901EC54FF4F8491F9017D
:10031000E356FF4FD491F901EA57FF4FC491CC2324
:10032000A9F0162F81110E942C01EC2FF0E0EE0FA6
:10033000FF1FEE58FF4FA591B4918FB7F894EC9141
:10034000111108C0D095DE23DC938FBFDF91CF91D0
:100350001F910895DE2BF8CFCF93DF9390E0FC013F
:10036000E356FF4F24918A579F4FFC0184918823C5
:10037000C9F090E0880F991FFC01E859FF4FA59143
:10038000B491FC01EE58FF4FC591D49161110DC09D
:100390009FB7F8948C91209582238C938881282391
:1003A00028839FBFDF91CF910895623051F49FB7AA
:1003B000F8943C91822F809583238C93E8812E2B97
:1003C000EFCF8FB7F894EC912E2B2C938FBFEACF01
:1003D000862F642F0C94AC01862F642F0C947E0121
:1003E000862F0C945501E091A101F091A201309764
:1003F00029F01092AB011092AA0109940895089572
:1004000085ED8093BC008091BC0084FDFCCF1092F0
:10041000A901089520917A01260F3327331F213235
:100420003105ECF42091A901FC0190E080E024303A
:1004300069F082E00895A0917A012191AC01465AB9
:100440005E4FA40FB52FB11D2C930196861798F31C
:1004500080917A01680F60937A0180E0089581E0CD
:1004600008950895E091AD018091AC01E81730F452
:10047000F0E0E65CFE4F808190E008958FEF9FEF03
:1004800008959091AD018091AC012FEF3FEF981747
:1004900048F4E92FF0E0E65CFE4F208130E09F5FFA
:1004A0009093AD01C90108958091AC019091AD0187
:1004B000891B990B0895CF93DF93CB01EA01642F39
:1004C0000E940A02CE01DF91CF910895CF93DF936E
:1004D0001F92CDB7DEB7698361E0CE0101960E941D
:1004E0000A0281E090E00F90DF91CF91089590E0B3
:1004F00080E00895CF93DF9300D0CDB7DEB71A82A6
:100500001982E091C501F091C60190E080E061E0C0
:1005100070E02191222369F029813A81AB01082EF4
:1005200002C0440F551F0A94E2F7242B352B3A835F
:10053000298301968031910561F78091C3019091E3
:10054000C401DC01ED91FC910280F381E02D42E0D9
:1005500050E0BE016F5F7F4F09950F900F90DF91C4
:10056000CF9108951F920F920FB60F9211242F93DF
:100570003F938F939F93AF93BF938091B3019091DB
:10058000B401A091B501B091B6013091B20123E060
:10059000230F2D3768F126E8230F0296A11DB11D08
:1005A0002093B2018093B3019093B401A093B5015D
:1005B000B093B6018091AE019091AF01A091B001CE
:1005C000B091B1010196A11DB11D8093AE01909330
:1005D000AF01A093B001B093B101BF91AF919F91D2
:1005E0008F913F912F910F900FBE0F901F901895F4
:1005F0000196A11DB11DD4CF1F920F920FB60F927D
:1006000011242F933F934F935F936F937F938F9317
:100610009F93AF93BF93EF93FF938091B900887F2F
:10062000803609F44AC0F0F5883209F4A7C018F5FD
:10063000803109F49BC0B8F4882309F4F3C08830F2
:1006400009F494C0FF91EF91BF91AF919F918F9169
:100650007F916F915F914F913F912F910F900FBEBE
:100660000F901F901895883109F488C0803251F797
:1006700080939D0114C0803409F499C040F4803304
:10068000B9F38833F9F680939D0185ECAAC08035D3
:1006900009F483C0883509F492C0883499F60E9421
:1006A0000002D0CF883909F488C038F5883729F09E
:1006B00050F4883611F0803729F683E08093A90141
:1006C00010929C0157C0883809F477C0803919F01E
:1006D000803809F0B7CF80919C01803208F06DC05E
:1006E000E0919C0181E08E0F80939C018091BB0082
:1006F000F0E0E458FE4F80833DC0803B39F0E0F4E9
:10070000803A09F473C0883A09F09CCF84E0809362
:10071000A90110927B0110927A01E091A501F0915C
:10072000A601099580917A0181110FC081E0809323
:100730007A0110925A0109C0803C09F4A6CF883C86
:1007400009F4A3CF883B09F07DCFE0917B0181E0E4
:100750008E0F80937B01F0E0E65AFE4F80818093FC
:10076000BB0090917B0180917A0125C08091A0010E
:100770008093BB0085EC8093BC0064CF90919F0177
:1007800080919E01981728F5E0919F0181E08E0FDE
:1007900080939F01F0E08081EBCFE0919F0181E0A9
:1007A0008E0F80939F018091BB00F0E08083909139
:1007B0009F0180919E019817E8F285E8DCCFE091D7
:1007C0009F0181E08E0F80939F018091BB00F0E03C
:1007D00080838091A801811162CF81E08093A7017D
:1007E00084EA8093BC001092A9012CCF85EC809301
:1007F000BC001092A90180919C01803230F4E091FC
:100800009C01F0E0E458FE4F108260919C0170E082
:10081000E091A301F091A4018CE791E00995109279
:100820009C0110CF10929D013ACF1092BA01109204
:10083000B90188EE93E0A0E0B0E08093BB01909313
:10084000BC01A093BD01B093BE018CE191E09093F7
:10085000B8018093B7018091000190910101A091AE
:100860000201B09103018093D7019093D801A09326
:10087000D901B093DA018091040190910501A09112
:100880000601B09107018093DB019093DC01A093F6
:10089000DD01B093DE0181E48093DF0182E4809387
:1008A000E00183E48093E10184E48093E20185E444
:1008B0008093E30186E48093E40187E48093E5017B
:1008C00088E48093E60189E48093E7018AE48093D9
:1008D000E8018BE48093E9018CE48093EA018DE4E4
:1008E0008093EB018EE48093EC018FE48093ED0123
:1008F00080E58093EE011092F1011092F5011092C3
:10090000F4011092F6018EE291E09093F001809351
:10091000EF01EBE0F2E0108214821382158236962A
:1009200082E0E734F807B9F787ED91E0909352023F
:10093000809351028BED91E0909354028093530287
:1009400084E080935502809356028FED91E090935E
:10095000500280934F028AE090E090935802809377
:10096000570284EF91E090935A02809359021092BB
:100970005D0210925C0210924B0210924C02109297
:100980004D0210924E0210925B0210925E0287EBB3
:1009900091E09093C4018093C30187EC91E0909320
:1009A000C6018093C5010895789484B5836084BDA1
:1009B00085B5836085BD80916E00816080936E00F7
:1009C00082E080938100809181008160809381002A
:1009D000809180008160809380008091B10084606C
:1009E0008093B1008091B00081608093B00087E86F
:1009F00080937A001092C10081E090E090935802B9
:100A00008093570290935A02809359021092AD013D
:100A10001092AC011092AB011092AA011092A901A0
:100A20008093A8011092A70161E082E10E947E01FB
:100A300061E083E10E947E018091B9008E7F809306
:100A4000B9008091B9008D7F8093B90088E48093CC
:100A5000B80085E48093BC0083EF91E09093A601F9
:100A60008093A5018FEF91E09093A4018093A3015F
:100A700080E18093BA008AE792E09093A20180938C
:100A8000A101812C912C540183944CE4242E42E04A
:100A9000342E50E0652E50E0752E71E070935B02AD
:100AA0008FB7F8944091B3015091B4016091B501B2
:100AB0007091B6018FBF80914B0290914C02A09132
:100AC0004D02B0914E02481B590B6A0B7B0B809173
:100AD000570290915802B0E0A0E084179507A6074E
:100AE000B70708F022C1C0E080915502C81760F432
:100AF000E0915102F0915202EC0FF11D62E0808111
:100B00000E94AC01CF5FF0CF512C80915602581655
:100B100008F05FC0052D10E0E0915302F0915402FF
:100B2000E00FF11F61E080810E94AC01E09153026F
:100B3000F0915402E00FF11F60E080810E947E017D
:100B4000D501C401052C04C0880F991FAA1FBB1F23
:100B50000A94D2F76C017C01E094F094412C8091CE
:100B600055024816F8F4C42DD0E0E0915102F091FE
:100B70005202EC0FFD1F80810E9455012496CC0F7C
:100B8000DD1FC953DE4F892B41F488A599A58C2917
:100B90009D2999A788A74394E2CF88A599A58E217E
:100BA0009F21F7CFE0915302F0915402E00FF11F23
:100BB00061E080810E947E018091530290915402F5
:100BC000080F191F60E0F80180810E94AC01539466
:100BD0009CCFEBE0F2E083819481892B31F4108289
:100BE0008FEF9FEF928381831582369692E0E734F0
:100BF000F90789F7C0E080915502C81708F058C07E
:100C0000D0E00C2F10E0000F111F09501E4F209153
:100C10005602D21708F04AC0F801608171810D2E8A
:100C200002C0769567950A94E2F7C29F900111245D
:100C30002D0F311DECE0F2E080E04081518124175E
:100C4000350709F4A0C08F5F36968A30B1F760FF90
:100C50002BC0EBE0F2E090E080E0408141111FC04A
:100C6000E0914F02F0915002E20FF31F6081F6E035
:100C7000F89FA001F99F500D112449535E4FFA01CE
:100C8000EC5BFF4F6083319631832083495B5F4F7C
:100C9000FA011182108261E00E94B60005C001963F
:100CA00036968A309105C9F6DF5FB1CFCF5FA3CF0B
:100CB000E0E1F2E080E090819111892F36962E16C6
:100CC0003F06C9F79FB7F8944091B3015091B40122
:100CD0006091B5017091B6019FBF40934B02509354
:100CE0004C0260934D0270934E028823F1F0809184
:100CF00010028823D1F080910E0290910F0201978B
:100D0000A1F480910B02811113C080910E02909189
:100D10000F028130910579F0039711F1611471048C
:100D200009F4BBCE0E940000B8CE10925B02EDCF5A
:100D300080935E02EACFE0915E02E154E03168F414
:100D4000F0E0E85FFE4FE0810E2E000CFF0BE95350
:100D5000FE4F80818F5F8083E1CFEFEFF0E0F7CF30
:100D6000E0915E02E1548FEF90E0E03138F4F0E082
:100D7000E85FFE4F8081082E000C990B89539E4F2F
:100D8000FC011082CBCF617087CFEE0FFF1F059063
:0A0D9000F491E02D0994F894FFCFD0
:100D9A000405060700010203000102030405060711
:100DAA0008090A0B0C0D0E0F0000000066025B0218
:100DBA007702310254024102320200000000E801C7
:040DCA00EC01F00147
:00000001FF
